:10AA00001B787F2B13D8FB1D1B781A001F231A40BD
:10AA100011004EF20013CEF20003FA1D127852B26A
:10AA2000520901208840010060329200D150C04696
:10AA3000BD4602B080BD90B583B000AF0200396062
:10AA4000FB1D1A70FB1D1B787F2B2FD84EF20013B5
:10AA5000CEF20003FA1D127852B29208C032920070
:10AA6000D358FA1D1278110003220A40D200FF21A8
:10AA700091400A00D2431A4010003B689B01FF221C
:10AA80001A40FB1D1B78190003230B40DB009A4082
:10AA900011004EF20013CEF20003FA1D127852B2EA
:10AAA00092080143C0329200D15037E04EF6005375
:10AAB000CEF20003FA1D127811000F220A40083A64
:10AAC0009208063292009B1804331B68FA1D127814
:10AAD000110003220A40D200FF2191400A00D24314
:10AAE0001A4010003B689B01FF221A40FB1D1B7897
:10AAF000190003230B40DB009A404EF60053CEF2C0
:10AB00000003F91D09780C000F212140083989083C
:10AB10000243063189005B1804331A60C046BD4603
:10AB200003B090BD80B500AF43F20003C4F205034B
:10AB30005B7ADBB29B0901221340013B5A4253412D
:10AB4000DBB21800BD4680BD80B500AF43F2000304
:10AB5000C4F205035B7ADBB21A00102313405A4299
:10AB60005341DBB21800BD4680BD80B500AF43F253
:10AB70000003C4F205035B7ADBB2DB090122134058
:10AB8000013B5A425341DBB21800BD4680BD80B53F
:10AB900000AF44F20443C2F200031B681800BD4634
:10ABA00080BD80B500AF44F20843C2F20003180034
:10ABB000BD4680BD80B500AF44F21443C2F200032D
:10ABC0000022DA8044F21443C2F2000300225A71D8
:10ABD00044F21443C2F2000305221A7244F21443F1
:10ABE000C2F2000300225A7044F21443C2F200037E
:10ABF00000229A7044F21443C2F2000300221A7039
:10AC000044F21443C2F200030022DA7044F2144307
:10AC1000C2F2000300221A71C046BD4680BDFFFF8C
:10AC200080B500AFFFF7BDFF03009B79052B50D81F
:10AC30009A00414BD3181B689F4644F2FD33C2F281
:10AC4000000316221A7044F2FE33C2F200031222ED
:10AC50001A7044F2FF33C2F2000302221A7038E085
:10AC600044F2FD33C2F2000306221A7044F2FE33AE
:10AC7000C2F2000305221A7044F2FF33C2F200034D
