:102D0000D2030A431A6010BD40F2587310B5C2F2E4
:102D100000035878FEF706F910BDC04640F258731C
:102D200010B5C2F200035878FEF7FCF847F2000332
:102D30008022C4F204031968D2050A431A6010BD48
:102D400040F2587310B5C2F200031878FEF7EAF8A3
:102D500010BDC04640F2587310B5C2F20003187897
:102D6000FEF7E0F847F200038022C4F2040319687A
:102D700012060A431A6010BD10B500211920FEF793
:102D8000C3F910BD10B500210920FEF7BDF910BD33
:102D900010B500211820FEF779F910BD10B50021FB
:102DA0000820FEF773F910BD130010B50A000100EA
:102DB0000920FEF7D7F900235B22C4F207039978B4
:102DC0000A40A0219A709A780A439A7010BDC046B2
:102DD000130010B50A0001001920FEF7C3F9002303
:102DE0005B22C4F2070399780A40A0219A709A786E
:102DF0000A439A7010BDC046130010B50A000100C6
:102E00001920FEF7AFF900235B22C4F2070399787B
:102E10000A40A0219A709A780A439A7010BDC04661
:102E200010B500211920FEF76FF910BD10B5002173
:102E30001820FEF72BF910BDF0B5C6464F1E84468C
:102E400000B51000002F36DDFE23551C00228C1E1D
:102E5000A3425241F63BA3429B415B4213424BD0FB
:102E600003002B439B0747D1BB08984600262B68DD
:102E70006C1E1A0A237001362A701A0C1B0E6A7017
:102E8000AB700435B045F2D803233A009A43D3B26D
:102E9000974210D08418647884545C1CE4B2A74232
:102EA00009DD9A1CD2B2855C0555974203DD0333D8
:102EB000DBB2C35C835440F29C63C2F200035A6AE3
:102EC00054685389A0461BB243441C784318013B05
:102ED0001C70538901331BB253811489A34201DB57
:102EE000002353810A00614600F0B7FF4342584176
:102EF000C0B280BCB846F0BD01240300241A5A7841
:102F00001A70E218D2B201339742F8DCD3E7C04618
:102F1000F0B5C6464F1E844600B51000002F36DDC2
:102F2000FE23551C00228C1EA3425241F63BA342B5
:102F30009B415B4213424BD003002B439B0747D17D
:102F4000BB08984600262B686C1E1A0A23700136AF
:102F50002A701A0C1B0E6A70AB700435B045F2D89B
:102F600003233A009A43D3B2974210D0841864786E
:102F700084545C1CE4B2A74209DD9A1CD2B2855C81
