:10C800005B021340F3B144F24043C2F20003DB6920
:10C81000C3B144F24043C2F20003DB69984746F2D9
:10C820000003C4F2000340F27C329A5846F200033F
:10C83000C4F2000305490A4040F27C315A501F20DF
:10C84000FFF7F8FDC046BD4680BDC046FFFFFEFFB6
:10C8500080B500AFFFF76CFEFFF79CFEFFF7CCFE44
:10C86000FFF7FCFEFFF72CFFFFF75CFFFFF78CFFE5
:10C87000FFF7BCFFFFF700FEC046BD4680BD80B598
:10C8800082B000AF0200FB1D1A70FB1D1B787F2BCE
:10C8900012D8FB1D1B781A001F231A4011004EF2FC
:10C8A0000013CEF20003FA1D127852B25209012091
:10C8B000884001009200D150C046BD4602B080BD04
:10C8C00090B583B000AF02003960FB1D1A70FB1DEC
:10C8D0001B787F2B2FD84EF20013CEF20003FA1DE7
:10C8E000127852B29208C0329200D358FA1D1278D0
:10C8F000110003220A40D200FF2191400A00D243D6
:10C900001A4010003B689B01FF221A40FB1D1B7858
:10C91000190003230B40DB009A4011004EF2001374
:10C92000CEF20003FA1D127852B292080143C032CF
:10C930009200D15037E04EF60053CEF20003FA1DBC
:10C94000127811000F220A40083A9208063292002B
:10C950009B1804331B68FA1D1278110003220A4049
:10C96000D200FF2191400A00D2431A4010003B68D8
:10C970009B01FF221A40FB1D1B78190003230B406B
:10C98000DB009A404EF60053CEF20003F91D097801
:10C990000C000F2121400839890802430631890023
:10C9A0005B1804331A60C046BD4603B090BD80B525
:10C9B00000AF44F26543C2F200031B7801225340EA
:10C9C000DBB2BBB148F20003C4F2070300229A6451
:10C9D00048F20003C4F20703DA6A48F20003C4F223
:10C9E000070301210A43DA6244F26543C2F20003FD
:10C9F00001221A70C046BD4680BD80B500AF46F228
:10CA00004033C4F200030F221A6001211020FFF707
:10CA100057FF1020FFF733FFC046BD4680BD80B5ED
:10CA200000AF44F26443C2F200031B78012253407A
:10CA3000DBB2D3B3FFF7E1FF47F20003C4F2040314
:10CA40009A6847F20003C4F2040320218A439A60E3
:10CA500048F20003C4F20703DA6A48F20003C4F2A2
:10CA60000703802149020A43DA6248F20003C4F254
:10CA7000070301221A6348F20003C4F20703DA6ACB
