:107BF000202BF7D110BDC04670B5EFF310810123E3
:107C000083F3108840F25C734000C2F200031A5AFA
:107C10001AB11A5A013A92B21A521B5A83B94EF249
:107C2000000240F2FE3547F6FC64C4F20102565BE6
:107C3000054BC0F20104205A334383439BB2535394
:107C400081F3108870BDC04600A5FFFF70B5EFF34B
:107C50001081012383F3108840F25C724000C2F26D
:107C60000002135A83B94EF2000447F6FC6540F255
:107C7000FE36C4F20104C0F20105A35B2D5A2B436A
:107C80004AF200552B43A353135A01339BB21352AC
:107C900081F3108870BDC046FEE7C04610B500F005
:107CA00003F800F0ABF8FEE744F200034EF6005292
:107CB000C0F20103CEF2000270B593604CF20003F3
:107CC00090220125C4F27E0382B09D54FFF7EAFEA4
:107CD0006B460026DC1D267001202378FFF7B6FFD7
:107CE000EFF3108185F3108847F20003C4F2040318
:107CF0005A68394802405A605A6881F3108840F641
:107D00000001C4F204010A68D207D20F22700A6887
:107D1000D207D20F22700A68D207D20F2270EFF377
:107D2000108185F3108880225868520502435A60FA
:107D30005B6881F310880120FFF75EFF40F6005377
:107D4000264AC4F200039E801A8040F6B022C2F296
:107D500000029A6040F6B062C2F20002DA6046F2B7
:107D6000000240F2201141F20000C4F20002505221
:107D700040F6B00240F29810C2F20002C2F20000D7
:107D80009D800021121A00F060F840F2800040F25D
:107D9000841247F61071C2F20000C2F20002121AF9
:107DA000C0F2010100F048F840F27C1540F2801367
:107DB000C2F20005C2F200035B1B9E10002B05DD22
:107DC000002408CD01349847A642FADCFFF754FEA0
:107DD000FFF7FEFE02B070BDFFFFFFEF00A5FFFF43
:107DE00040F2581347F6047110B5C2F200030022A6
:107DF0000C20DB68C0F20101984710BD10B5FFF7F9
:107E000003FE62B640F26874C2F200040021200052
:107E1000FEF724FE40F258100021C2F20000FFF7E6
:107E2000E3F840F2481063690021C2F2000098476D
:107E300063689847FEE7C046002310B59A4200D118
:107E400010BDCC5CC4540133F8E7030082189342A0
:107E500000D1704719700133F9E730B50500100003
:107E600042B10024013A2B5D085D834201D1944266
