:10C30000FEF745FC0300DBB143F20003C4F2050372
:10C310001B79DAB243F20003C4F2050310210A4389
:10C32000D2B21A7143F20003C4F205031B79DAB2E8
:10C3300043F20003C4F2050308218A43D2B21A7102
:10C34000FEF725FC03001B891A0044F21443C2F2D5
:10C350000003DB88D31A012B1FD1FEF718FC030062
:10C36000DBB143F20003C4F205031B79DAB243F2F6
:10C370000003C4F2050310210A43D2B21A7143F23A
:10C380000003C4F205031B79DAB243F20003C4F2DE
:10C39000050308210A43D2B21A7143F20003C4F222
:10C3A0000503DB7CDAB2FB1D1A70FB1D1B7844F21F
:10C3B0001443C2F2000301225A7012E0FEF7E7FBB9
:10C3C00003001B891A0044F21443C2F20003DB8805
:10C3D000D31A002B05DDFEF7DAFB03000BB1FFF7E4
:10C3E00090FBC046BD4602B080BDC046FFFFFEFFC9
:10C3F00080B500AF44F28103C2F200031B78012B29
:10C4000002D1FFF7D9F901E0FFF742FCC046BD4673
:10C4100080BD80B500AF44F28103C2F200031B78F7
:10C42000012B02D1FFF78EF801E0FFF7F1FCC046C7
:10C43000BD4680BD80B582B000AF0200FB1D1A7002
:10C44000FB1D1B787F2B13D8FB1D1B781A001F23A5
:10C450001A4011004EF20013CEF20003FA1D1278BA
:10C4600052B2520901208840010060329200D1503E
:10C47000C046BD4602B080BD80B582B000AFFB1D96
:10C4800000221A7046E0FB1D1A7844F22043C2F2E3
:10C4900000039200D358C3B30023C4F208031B79EE
:10C4A000DBB21A00FB1D1B781A4113000122134056
:10C4B0005BB3FB1D1A7844F22043C2F200039200E2
:10C4C000D358984746F20003C4F2000340F200320A
:10C4D0009A5846F20003C4F2000314490A4040F29D
:10C4E00000315A500023C4F208031B79DAB2FB1D55
:10C4F0001B78012199400B00DBB2DB43D9B200234A
:10C50000C4F208030A40D2B21A71FB1D1A78FB1D4F
:10C5100001321A70FB1D1B78072BB4D90020FFF7DE
:10C5200089FFC046BD4602B080BDC046FFFFFEFF8A
:10C5300080B500AF46F20003C4F2000340F260325F
:10C540009A5880235B021340F3B144F24043C2F295
:10C5500000031B68C3B144F24043C2F200031B68EE
:10C56000984746F20003C4F2000340F260329A5842
:10C5700046F20003C4F2000305490A4040F260316C
