:10C580005A501820FFF756FFC046BD4680BDC04632
:10C59000FFFFFEFF80B500AF46F20003C4F20003C8
:10C5A00040F264329A5880235B021340F3B144F2A4
:10C5B0004043C2F200035B68C3B144F24043C2F29D
:10C5C00000035B68984746F20003C4F2000340F2A0
:10C5D00064329A5846F20003C4F2000305490A4047
:10C5E00040F264315A501920FFF724FFC046BD467F
:10C5F00080BDC046FFFFFEFF80B500AF46F20003DE
:10C60000C4F2000340F268329A5880235B02134060
:10C61000F3B144F24043C2F200039B68C3B144F259
:10C620004043C2F200039B68984746F20003C4F2FD
:10C63000000340F268329A5846F20003C4F2000345
:10C6400005490A4040F268315A501A20FFF7F2FEBD
:10C65000C046BD4680BDC046FFFFFEFF80B500AFAF
:10C6600046F20003C4F2000340F26C329A58802371
:10C670005B021340F3B144F24043C2F20003DB68B3
:10C68000C3B144F24043C2F20003DB68984746F26C
:10C690000003C4F2000340F26C329A5846F20003E1
:10C6A000C4F2000305490A4040F26C315A501B2085
:10C6B000FFF7C0FEC046BD4680BDC046FFFFFEFF7F
:10C6C00080B500AF46F20003C4F2000340F27032BE
:10C6D0009A5880235B021340F3B144F24043C2F204
:10C6E00000031B69C3B144F24043C2F200031B695B
:10C6F000984746F20003C4F2000340F270329A58A1
:10C7000046F20003C4F2000305490A4040F27031CA
:10C710005A501C20FFF78EFEC046BD4680BDC04665
:10C72000FFFFFEFF80B500AF46F20003C4F2000336
:10C7300040F274329A5880235B021340F3B144F202
:10C740004043C2F200035B69C3B144F24043C2F20A
:10C7500000035B69984746F20003C4F2000340F20D
:10C7600074329A5846F20003C4F2000305490A40A5
:10C7700040F274315A501D20FFF75CFEC046BD46A2
:10C7800080BDC046FFFFFEFF80B500AF46F200034C
:10C79000C4F2000340F278329A5880235B021340BF
:10C7A000F3B144F24043C2F200039B69C3B144F2C7
:10C7B0004043C2F200039B69984746F20003C4F26B
:10C7C000000340F278329A5846F20003C4F20003A4
:10C7D00005490A4040F278315A501E20FFF72AFEE0
:10C7E000C046BD4680BDC046FFFFFEFF80B500AF1E
:10C7F00046F20003C4F2000340F27C329A588023D0
