:10CA800048F20003C4F20703802149040A43DA6232
:10CA900048F20003C4F2070341F287325A6644F2B7
:10CAA0006443C2F2000301221A70C046BD4680BD35
:10CAB00080B500AF48F20003C4F20703DA6A48F217
:10CAC0000003C4F2070301218A43DA6244F265439A
:10CAD000C2F2000300221A70C046BD4680BD80B578
:10CAE00000AF44F26043C2F200031B681800BD4669
:10CAF00080BD80B584B000AF78600023FB6044F255
:10CB00006043C2F200031B68BB60BA687B689A424C
:10CB100004D9BA687B68D31AFB600AE07A68BB68FC
:10CB20009A4206D97B68DB43FB60FA68BB68D3187E
:10CB3000FB60FB681800BD4604B080BD80B500AF47
:10CB400048F20003C4F20703DB6B9B090122134088
:10CB5000013B5A425341DBB21800BD4680BDFFFF86
:10CB600080B584B000AF78600A00FB1C1A707B6847
:10CB7000002B60D044F2DC53C2F200031B681E2B72
:10CB800059D87B68FB60FFF7AAFF0200FB685B686F
:10CB9000D218FB689A60FB680022DA60FB68DA68EA
:10CBA00001210A43DA60FB1C1B7833B9FB68DA68A1
:10CBB00040F200410A43DA600AE0FB68FA1C11788F
:10CBC000DA68FF20014089001D4802400A43DA600C
:10CBD00044F2E053C2F200031B7801225340DBB25F
:10CBE00093B144F2E053C2F2000301221A7044F2FE
:10CBF0007442C2F20002F96844F26843C2F20003D0
:10CC00001800FCF7D1FA0BE044F27442C2F20002C1
:10CC1000F96844F26843C2F200031800FCF7DBFA3B
:10CC200044F2DC53C2F200031B685A1C44F2DC538A
:10CC3000C2F200031A60C046BD4604B080BDC046C3
:10CC400003FCFFFF80B584B000AF78607B68ABB1B8
:10CC50007B68FB60FB680022DA60FB68DA6802210F
:10CC60000A43DA6044F27442C2F20002F96844F204
:10CC70006843C2F200031800FCF7EBFAC046BD4659
:10CC800004B080BD80B582B000AF78600A00FB1CA4
:10CC90001A70FB1C1B78032B30D031DC022B31D0F7
:10CCA0002EDC13B1012B2FD02AE07B6873B3FFF782
:10CCB000B6FE7A684CF6F323C0F2000313617A687B
:10CCC0004CF6DF23C0F20003D3607A684CF6AF1352
:10CCD000C0F2000353607A684CF6B123C0F200033F
:10CCE00093607A684CF66133C0F2000353617A684E
:10CCF0004CF64543C0F20003936107E0C04606E0EE
