:1055000048F20003C4F20703DA6A48F20003C4F267
:105510000703802149040A43DA6248F20003C4F217
:10552000070341F287325A6640F21453C2F2000375
:1055300001221A70C046BD4680BD80B500AF48F25A
:105540000003C4F20703DA6A48F20003C4F2070357
:1055500001218A43DA6240F21553C2F200030022AD
:105560001A70C046BD4680BD80B500AF40F21053F2
:10557000C2F200031B681800BD4680BD80B584B030
:1055800000AF78600023FB6040F21053C2F20003CA
:105590001B68BB60BA687B689A4204D9BA687B68AA
:1055A000D31AFB600AE07A68BB689A4206D97B6826
:1055B000DB43FB60FA68BB68D318FB60FB6818002C
:1055C000BD4604B080BD80B500AF48F20003C4F210
:1055D0000703DB6B9B0901221340013B5A425341F5
:1055E000DBB21800BD4680BD80B584B000AF7860E6
:1055F0000A00FB1C1A707B68002B64D07B68FB6080
:1056000040F21853C2F200031B681D2B5BD8FB68E5
:105610001B68002B57D0FFF7A7FF0200FB685B68F1
:10562000D218FB689A60FB680022DA60FB68DA68CF
:1056300001210A43DA60FB1C1B7833B9FB68DA6886
:1056400040F200410A43DA600AE0FB68FA1C117874
:10565000DA68FF20014089001D4802400A43DA60F1
:1056600040F29063C2F200031B7801225340DBB288
:1056700093B140F29063C2F2000301221A7040F22B
:105680002852C2F20002F96840F21C53C2F2000331
:105690001800FAF75DFF0BE040F22852C2F2000258
:1056A000F96840F21C53C2F200031800FAF767FFD2
:1056B00040F21853C2F200031B685A1C40F2185300
:1056C000C2F200031A60C046BD4604B080BDC046A9
:1056D00003FCFFFF80B584B000AF78607B6833B314
:1056E00040F21853C2F200031B6803B37B68FB60EF
:1056F000FB680022DA60FB68DA6802210A43DA609C
:1057000040F22852C2F20002F96840F21C53C2F281
:1057100000031800FAF771FF40F21853C2F20003B9
:105720001B685A1E40F21853C2F200031A60C046AA
:10573000BD4604B080BD80B582B000AF78600A007D
:10574000FB1C1A70FB1C1B78032B30D031DC022BA6
:1057500031D02EDC13B1012B2FD02AE07B6873B33C
:10576000FFF795FE7A6845F27D53C0F2000313619E
:105770007A6845F26953C0F20003D3607A6845F253
