:106E0000C4F2010340F200121A62C046BD4680BDC2
:106E100003A5FFFF80B582B000AF0200FB1D1A7012
:106E20004EF20003C4F20103A0229B5CDBB2FA1D08
:106E300012789A4234D04EF20003C4F20103362293
:106E40009B5CDBB25BB9C0464EF20003C4F20103A7
:106E50003C229B5CDB07DB0FDBB2012BF4D1C0468D
:106E60004EF20003C4F20103A0229B5CDB06DB0FA1
:106E7000DBB2002BF4D14EF20003C4F20103FA1D81
:106E8000A02112785A54C0464EF20003C4F2010306
:106E9000A0229B5CDB06DB0FDBB2002BF4D100E011
:106EA000C046BD4602B080BD80B582B000AF4EF294
:106EB0000003C4F2010326229B5CDBB27B6040F23C
:106EC0008C13C2F200037A689200D2584EF200038B
:106ED000C4F201031B6A5B015B0FDBB2DA4040F2D4
:106EE0007073C2F200031A60C046BD4602B080BD96
:106EF00080B500AF4EF20003C4F20103312201213C
:106F000099544FF6C473C4F27E0301221A704EF2F4
:106F10000003C4F201032622002199544EF200031B
:106F2000C4F2010340F200121A62FFF7BDFFC0462F
:106F3000BD4680BD80B500AF40F28C13C2F20003A5
:106F400046F60042C0F2DC221A6040F28C13C2F214
:106F5000000341F20022C0F27A025A6040F28C1320
:106F6000C2F2000348F200029A6040F28C13C2F2AF
:106F7000000342F60052C0F23112DA6040F28C1384
:106F8000C2F2000348F200021A61FFF78DFFC0460B
:106F9000BD4680BD80B500AF4EF20003C4F20103D0
:106FA00040F2FE322F4999524CF20003C4F27E03A4
:106FB00043F6C87200219954FFF7BCFF4EF200035C
:106FC000C4F2010340F21342002199544EF200032F
:106FD000C4F20103A222092199544EF20003C4F223
:106FE000010340F280429B5CDBB27BB14EF20003B6
:106FF000C4F2010340F28142002199544EF2000391
:10700000C4F2010340F28042002199540020FFF7AE
:1070100001FF4EF20003C4F201033622002199540D
:10702000C0464EF20003C4F201033C229B5CDB0726
:10703000DB0FDBB2012BF4D1FFF75AFF4EF2000356
:10704000C4F2010340F2FE32074999524CF20003A8
:10705000C4F27E0343F6C87201219954C046BD466E
:1070600080BDC04603A5FFFF00A5FFFF80B582B02D
:1070700000AF00237B6012E047F26C53C0F20003C4
