:105F000001321A700F23FB181B78032BA6D9C04649
:105F1000C046BD4605B090BD80B500AF40F2946369
:105F2000C2F200031800BD4680BDB0B500AFFFF758
:105F3000F3FF03001B78190040F2A063C2F20003D4
:105F40001A6847F23453C0F2000389005B18023329
:105F50001B785370FFF7E0FF03001B781A0047F22D
:105F60003453C0F2000392009B185B789B079B0F91
:105F7000DBB2190040F2A063C2F200031B681B7879
:105F8000DBB25AB24BB213435AB240F2A063C2F230
:105F900000031B68D2B21A70FFF7BEFF03001B7824
:105FA000190040F2A063C2F200031A6847F23453AA
:105FB000C0F2000389005B1803331B78937440F22E
:105FC000A063C2F200031B68DB79DBB25C2293435F
:105FD000DCB2FFF7A1FF03001B781A0047F234532D
:105FE000C0F200039200D35C5C221340DAB240F2AC
:105FF000A063C2F200031B682243D2B2DA71C0462A
:10600000BD46B0BD80B582B000AF0200FB1D1A7066
:10601000FB1D1B78092B02D1FB1D02221A70FB1DF0
:106020001A7840F29C63C2F200039B5C1800BD46E4
:1060300002B080BD80B582B000AF02003960FB1DA8
:106040001A70FB1D1B78092B02D1FB1D02221A704E
:10605000FB1D1A7840F2A863C2F20003920039686F
:10606000D150C046BD4602B080BDFFFFF0B58BB039
:1060700000AF786013243B1900221A702723FB1805
:1060800000221A7000233B620023FB617B681B78AF
:106090001800FFF7B7FF030013B13B191B7819E392
:1060A0007B681A780B23FB181A707B681B78092B06
:1060B0005FD000DD91E013B1012B2DD08DE040F2D7
:1060C0009C63C2F2000301221A7040F2A063C2F284
:1060D00000030022C4F207021A6047F20003C4F270
:1060E00004031A6847F20003C4F204035200520882
:1060F0001A6040F2A463C2F2000308221A70272338
:10610000FB1808221A700323C4F207033B6205231D
:10611000C4F20703FB6161E040F29C63C2F200033A
:1061200001225A7040F2A063C2F200032022C4F29E
:1061300007021A6047F20003C4F204031A6847F228
:106140000003C4F20403CB490A401A6040F2A4637E
:10615000C2F2000318225A702723FB1818221A7063
:106160002323C4F207033B622523C4F20703FB6128
:1061700034E040F29C63C2F2000301229A7040F2C4
