:10988000C04640F60003C4F204031B68DB07DB0F8D
:10989000DBB21A00FB1C1A7040F60003C4F204038A
:1098A0001B68DB07DB0FDBB21A00FB1C1A7040F6EB
:1098B0000003C4F204031B68DB07DB0FDBB21A00F2
:1098C000FB1C1A70EFF310833B613B69FB610123C2
:1098D0007B617B6983F31088C04647F20003C4F2C2
:1098E00004035A6847F20003C4F2040380214905C7
:1098F0000A435A6047F20003C4F204035B68FB6941
:10990000BB61BB6983F31088C0460120FFF736FEB8
:10991000C046BD4608B080BDFFFFFFEF80B586B0F2
:1099200000AF44F21C13C2F200037B6100233B61D1
:1099300058E07B691B68BB60BB681B687B607B6809
:109940001B78DBB2180000F055F803003B6044F2CE
:109950001413C2F200031B7801225340DBB23BB95F
:109960007B685B78DBB201225340DBB203B900E0D5
:10997000FEE70E23FB1800221A8024E044F21413A1
:10998000C2F200031B7973B90E217B181B885B00A0
:109990003A68D3181A887B181B885B003968CB1883
:1099A000120992B21A800E217B181B885B003A685C
:1099B000D3181B881A003B699B183B617B181A88D7
:1099C0007B1801321A800E23FB181B88002BD5D080
:1099D0003B691B099AB2BB689A8000233B617B6993
:1099E0009B687B617B69002BA3D1C046C046BD4606
:1099F00006B080BD80B582B000AF0200FB1D1A70BA
:109A0000FB1D1B785A0044F25813C2F20003D3180E
:109A10001800BD4602B080BD80B584B000AF46F2EC
:109A20005033C4F200031A6846F25033C4F2000304
:109A30001C490A401A6044F21C13C2F20003FB6086
:109A40000B23FB1800221A7015E0FB681B687B6073
:109A50007B681B683B600B22BB181B78BA18591C2B
:109A600011701900142000F0C3FA3B6801225A70EB
:109A7000FB689B68FB60FB68002BE6D1FFF74EFF9D
:109A800044F21013C2F200031B689B6933B144F225
:109A90001013C2F200031B689B699847C046BD467D
:109AA00004B080BDFFFFFEFFF0B585B000AF786069
:109AB0000F257B197A68927D1A700E23FB187A683D
:109AC000D27D1A7045F20043C4F200031B7BDAB268
:109AD00045F20043C4F2000301218A43D2B21A7353
:109AE00045F20043C4F200031B78DAB245F20043AA
:109AF000C4F2000310218A43D2B21A707B681800A6
