:104380001343DBB20B7140F2C043C2F200031B784F
:1043900040F2305CC0F2400C63441B02DB7CDAB2BA
:1043A000FB1D1A70FB1D1B7840F2C443C2F20003D0
:1043B00001225A7012E0FDF744FE03001B891A0027
:1043C00040F2C443C2F20003DB88D31A002B05DDA0
:1043D000FDF737FE03000BB1FFF73AF9C046BD46C3
:1043E00002B080BDFFFFFEFF80B500AF40F2F103D9
:1043F000C2F200031B78012B02D1FEF735FF01E06A
:10440000FFF762FAC046BD4680BD80B500AF40F2FE
:10441000F103C2F200031B78012B02D1FEF774FDF9
:1044200001E0FFF771FBC046BD4680BD80B582B09C
:1044300000AF0200FB1D1A70FB1D1B787F2B13D8E9
:10444000FB1D1B781A001F231A4011004EF20013A7
:10445000CEF20003FA1D127852B2520901208840B0
:10446000010060329200D150C046BD4602B080BD0E
:1044700080B582B000AFFB1D00221A7046E0FB1D24
:104480001A7840F2D043C2F200039200D358C3B36B
:104490000023C4F208031B79DBB21A00FB1D1B7852
:1044A0001A411300012213405BB3FB1D1A7840F23E
:1044B000D043C2F200039200D358984746F200035B
:1044C000C4F2000340F200329A5846F20003C4F2EC
:1044D000000314490A4040F200315A500023C4F24C
:1044E00008031B79DAB2FB1D1B78012199400B00F0
:1044F000DBB2DB43D9B20023C4F208030A40D2B2D4
:104500001A71FB1D1A78FB1D01321A70FB1D1B78F6
:10451000072BB4D90020FFF789FFC046BD4602B083
:1045200080BDC046FFFFFEFF80B500AF46F200032E
:10453000C4F2000340F260329A5880235B021340B9
:10454000F3B140F2F043C2F200031B68C3B140F282
:10455000F043C2F200031B68984746F20003C4F21E
:10456000000340F260329A5846F20003C4F200039E
:1045700005490A4040F260315A501820FFF756FFB3
:10458000C046BD4680BDC046FFFFFEFF80B500AF00
:1045900046F20003C4F2000340F264329A588023CA
:1045A0005B021340F3B140F2F043C2F200035B68D8
:1045B000C3B140F2F043C2F200035B68984746F291
:1045C0000003C4F2000340F264329A5846F200033A
:1045D000C4F2000305490A4040F264315A501920E0
:1045E000FFF724FFC046BD4680BDC046FFFFFEFF6B
:1045F00080B500AF46F20003C4F2000340F2683217
