:1005000010B540F2A014C2F20004237863B940F29F
:100510000003C0F200032BB147F2A050C0F200006C
:1005200000E000BF0123237010BDC04640F200036D
:10053000C0F2000310B54BB140F2A41147F2A05035
:10054000C2F20001C0F2000000E000BF10BDC046D2
:1005500080B586B000AFF860B9607A6000237B6137
:100560007B687B617B69BA681A607B6900229A604C
:10057000FB687A699A60C046BD4606B080BD80B50A
:100580008AB000AFF860B9607A60FB681A791B2105
:100590007B1801321A7000237B617B181A781300D4
:1005A0005B009B189B001A007B689B187B61FB68B3
:1005B0007A1812781A717B69BA681A607B6900220E
:1005C0009A602723FB1801221A70FB683B620AE03D
:1005D00027217B181A787B1801321A703B6AFB615D
:1005E0003B6A9B683B623B6A002BF1D1FB697A69ED
:1005F0009A60C046BD460AB080BD80B58AB000AFE3
:10060000F860B9607A602723FB1800221A70102363
:10061000FB1818000C231A00002106F059FFFB6894
:100620003B620023FB6123E03B6A1B68BA689A4285
:1006300013D13B6A9A6810217B189A602723FB1814
:100640001B781BB17B189A68FB699A603B6A002291
:100650001A603B6A00229A6004E03B6AFB613B6AD5
:100660009B683B6227217B181A787B1801321A702D
:100670003B6A002BD8D17B682722BA1812781A71EE
:10068000C046BD460AB080BD80B586B000AF40F21E
:10069000C813C2F200037B6100233B6157E07B6912
:1006A0001B68BB60BB681B687B607B681B78DBB228
:1006B000180000F054F803003B6040F2C013C2F28F
:1006C00000031B7801225340DBB233B97B685B78AF
:1006D000DBB201225340DBB203B1FEE70E23FB186D
:1006E00000221A8024E040F2C013C2F200031B79FA
:1006F00073B90E217B181B885B003A68D3181A88DF
:100700007B181B885B003968CB18120992B21A80DB
:100710000E217B181B885B003A68D3181B881A00CF
:100720003B699B183B617B181A887B1801321A8041
:100730000E23FB181B88002BD5D03B691B099AB2EE
:10074000BB689A8000233B617B699B687B617B6906
:10075000002BA4D1C046C046BD4606B080BD80B5C2
:1007600082B000AF0200FB1D1A70FB1D1B785A00FF
:1007700040F20423C2F20003D3181800BD4602B0B1
