:10E380000863C2F200033A68DA6001E0FFE7FDE7E4
:10E39000C046BD4602B080BD80B582B000AF02006D
:10E3A000FB1D1A70FB1D1B7800211800FBF76BFC8E
:10E3B00003001800BD4602B080BD80B500AF092043
:10E3C000FFF7EAFF03001800BD4680BD80B500AF2F
:10E3D0000520FFF7E1FF03001800BD4680BD80B5B2
:10E3E00000AF0D20FFF7D8FF03001800BD4680BD29
:10E3F00080B500AFC046BD4680BD80B500AF0021EE
:10E400000420FBF7F5FDC046BD4680BD80B500AFDA
:10E4100000210C20FBF7ECFDC046BD4680BD80B559
:10E4200000AFC046BD4680BD80B500AF00210520CD
:10E43000FBF736FDC046BD4680BD80B500AF00216C
:10E440000D20FBF72DFDC046BD4680BD80B500AF59
:10E4500007210220FFF75CF944F20863C2F20003CF
:10E460009B682BB144F20863C2F200039B68984793
:10E47000C046BD4680BD80B500AF0F210920FFF723
:10E4800047F944F20863C2F20003DB682BB144F29F
:10E490000863C2F20003DB689847C046BD4680BDF2
:10E4A00080B500AF4EF20003C4F2010340F2FE3229
:10E4B0003A4999524EF20003C4F201032622032185
:10E4C00099544EF20003C4F2010332220021995400
:10E4D000C0464EF20003C4F201033C229B5CDBB257
:10E4E0001A0008231340002BF3D04CF20003C4F2AF
:10E4F0007E0390229B5CDAB24CF20003C4F27E03EE
:10E5000001210A43D1B2902299544EF20003C4F281
:10E51000010331229B5CDAB24EF20003C4F2010324
:10E5200001210A43D1B2312299544CF20003C4F2C2
:10E530007E0343F6C4729B5CDAB24CF20003C4F271
:10E540007E0301210A43D1B243F6C47299544CF2BE
:10E550000003C4F27E0343F6C8729B5CDBB21A0070
:10E5600001239340D9B24CF20003C4F27E0343F678
:10E57000C8729B5CDAB24CF20003C4F27E030A4319
:10E58000D1B243F6C87299544EF20003C4F20103AB
:10E5900000221A62C046BD4680BDC04603A5FFFFEB
:10E5A00080B500AFFFF77CFF62B6C04644F25C73F3
:10E5B000C2F2000300211800FEF764FB44F2A4033A
:10E5C000C2F2000300211800FFF76DFE44F25C73F5
:10E5D000C2F200035B68984744F25C73C2F2000326
:10E5E0005A6944F2BC03C2F20003002118009047AC
:10E5F000C046FDE7B0B500AF44F2A403C2F2000389
