:1039800000031B6803B1984703B000BDFFFFFEFFB3
:1039900010B500211820FDF7C5FC10BD10B50021A1
:1039A0001920FDF75BFC10BD002340F2886238212E
:1039B00000B583B001932033C4F20703C2F20002C2
:1039C00013605A79D2B201921A798A431A7146F277
:1039D0006C33C4F2000319680A4A0A401A60802155
:1039E0004EF2001340F28012CEF200030905995006
:1039F00040F29063C2F200035B6803B1984703B0E2
:103A000000BDC046FFFFFEFF4EF2000240F2FE3353
:103A10001849C4F2010230B5D15226230321D154F2
:103A200000213C200C33D1540831135C1942FCD0E6
:103A30004CF2000390210124C4F27E03585C204321
:103A4000C0B258545F39505C2043C0B2505443F662
:103A5000C470195C21430124C9B2195404301D5C9F
:103A6000195CAC402143C9B2195440F200131362EF
:103A700030BDC04603A5FFFF4EF20003262240F2F0
:103A80008411C4F20103985C1B6A8000C2F2000139
:103A900041585B015B0F40F26472D940C2F20002F0
:103AA000116070474EF2000340F2FE324649C4F204
:103AB000010330B599524CF20002002143F6C87060
:103AC000C4F27E02115440F2841046F60042C2F263
:103AD0000000C0F2DC22026041F20022C0F27A0251
:103AE000426048F2000242F60054826002612622DF
:103AF000C0F23114C4609D5C1A6AAD004559520190
:103B0000520F40F26474D54040F21342C2F20004F6
:103B1000256099540925A2229D5440F280429D5C63
:103B20001DB140F28145595599544EF20003A0222F
:103B3000C4F201039A5CCAB136229A5C1AB93C21DC
:103B40005A5CD207FCD54EF20002A021C4F2010259
:103B5000535CDB06DD0F002BFADB55544EF20002FE
:103B6000A021C4F20102535CDB06FCD44EF2000239
:103B700000213623C4F20102D1543C31535CDB07EF
:103B8000FCD501213123D1544FF6C473C4F27E0316
:103B9000197000252623D5540135FF351562D55CF3
:103BA000136AAD0040595B015B0FD84040F2FE3311
:103BB00020600648D0524CF2000343F6C872C4F2AB
:103BC0007E03995430BDC04603A5FFFF00A5FFFF4B
:103BD00043F6DC6010B546F200040023C0F200009A
:103BE000C4F200041A00C15CC032920001331151CA
:103BF000202BF7D110BDC04670B5EFF31081012323
