:107E700001D1181A30BD0134002BF4D1F9E7FFFF0E
:107E8000F8B5C046F8BC08BC9E467047F8B5C04679
:107E9000F8BC08BC9E4670477C7601005E76010007
:107EA00044760100927601002A76010010760100E6
:107EB0004872010040018100040057AD440057ADF5
:107EC00044002BAD40002700440015AD440006A53A
:107ED000717273747778797A7C7D7E7F0000000000
:107EE0001D1B0019121000001E1C001A0F000000BC
:107EF0000700000000000000000000000100020078
:107F00000800100041707020537461727465640041
:107F1000000500000000000000000000000000005C
:107F20000000000000000000000000000000000051
:107F30000000000000000000000000000000000041
:107F4000000000000000000000050000000000002C
:107F50000000000000000000000000000000000021
:107F60000000000000000000000000000000000011
:107F70000000000000000000000000000000000001
:107F8000014102001109110941000000030402002F
:107F900000000000000000000000000000000000E1
:107FA00000000000040200001109000000000000B1
:107FB00000000000000000000000000000000000C1
:107FC00002000000000000000000000000000000AF
:107FD0000D0D000000000000E17D0100D007000051
:107FE00000000000000000000002000084070020E4
:107FF0002C01000000000000000000000000000054
:108000000000000000000000000000002D450100FD
:048010000145010025
:020000020000FC
:020000042000DA
:0400000310007C9DD0
:00000001FF
