:108C0000784D0020ED960000FD960000FD960000D6
:108C1000FD960000FD960000FD960000FD96000008
:108C2000000000000000000000000000FD960000B1
:108C3000FD96000000000000FD960000FD9600007B
:108C4000A1C20000C9C00000F1C3000013C40000AD
:108C5000FBE3000029E40000000000004DE40000F8
:108C6000F1E300001FE4000000000000000000002D
:108C70000DE400003BE400000000000077E4000089
:108C800019CD0000000000000000000000000000FE
:108C9000199A000000000000000000000000000021
:108CA00051C8000051C8000051C8000051C8000060
:108CB00051C8000051C8000051C8000051C8000050
:108CC000FFFFFFFFFFFFFFFFFFFFFFFFFFFFFFFFB4
:108CD000FFFFFFFFFFFFFFFFFFFFFFFFFFFFFFFFA4
:10900000FFFFFFFFDFCFFFFFFCFF0F00FFFF0F00A1
:10901000FCFF0F00FFFF0F00FCFF0F00FFFF0F0022
:10902000FCFF0F20FFFF0F20FCFF7F40FFFF7F4072
:10903000FCFF0D40FFFF0D40FFFFFFFFFFFFFFFFA5
:10904000FFFFFFFFFFFFFFFFFFFFFFFFFFFFFFFF30
:10905000FFFFFFFFFFFFFFFFFFFFFFFFFFFFFFFF20
:10906000FFFFFFFFFFFFFFFFFFFFFFFFFFFFFFFF10
:10907000FFFFFFFFFFFFFFFFFFFFFFFFFFFFFFFF00
:10908000FFFFFFFFFFFFFFFFFFFFFFFFFFFFFFFFF0
:10909000FFFFFFFFFFFFFFFFFFFFFFFFFFFFFFFFE0
:1090A000FFFFFFFFFFFFFFFFFFFFFFFFFFFFFFFFD0
:1090B000FFFFFFFFFFFFFFFFFFFFFFFFFFFFFFFFC0
:1090C000FFFFFFFFFFFFFFFFFFFFFFFFFFFFFFFFB0
:1090D000FFFFFFFFFFFFFFFFFFFFFFFFFFFFFFFFA0
:1090E000FFFFFFFFFFFFFFFFFFFFFFFFFFFFFFFF90
:1090F000FFFFFFFFFFFFFFFFFFFFFFFFFFFFFFFF80
:1091000044F2D40044F2D403C2F20000C2F20003DD
:1091100010B5834205D040F20003C0F2000303B152
:10912000984710BD44F2D40044F2D403C2F20000C8
:10913000C2F200031B1A9A10D90F8918491010B5F2
:1091400029B140F20003C0F2000303B1984710BDFB
:1091500010B544F2E804C2F20004237873B9FFF7B3
:10916000CFFF40F20003C0F200032BB14EF2C46007
:10917000C0F2000000E000BF0123237010BDC04614
:1091800040F20003C0F2000310B54BB144F2EC0111
:109190004EF2C460C2F20001C0F2000000E000BF65
:1091A000FFF7C0FF10BDC04680B586B000AFF860C5
:1091B000B9607A6000237B617B687B617B69BA68F8
:1091C0001A607B6900229A60FB687A699A60C046DF
:1091D000BD4606B080BD80B58AB000AFF860B9600A
:1091E0007A60FB681A791B217B1801321A70002300
:1091F0007B617B181A7813005B009B189B001A0098
:109200007B689B187B61FB687A1812781A717B69FE
:10921000BA681A607B6900229A602723FB18012232
:109220001A70FB683B620AE027217B181A787B18CA
:1092300001321A703B6AFB613B6A9B683B623B6A86
:10924000002BF1D1FB697A699A60C046BD460AB02D
:1092500080BD80B58AB000AFF860B9607A6027231E
:10926000FB1800221A701023FB1818000C231A0098
:10927000002105F0D1F9FB683B620023FB6123E08C
:109280003B6A1B68BA689A4213D13B6A9A681021FC
:109290007B189A602723FB181B781BB17B189A68F0
:1092A000FB699A603B6A00221A603B6A00229A605E
:1092B00004E03B6AFB613B6A9B683B6227217B18A9
:1092C0001A787B1801321A703B6A002BD8D17B6860
:1092D0002722BA1812781A71C046BD460AB080BD5E
:1092E00080B582B000AF0200FB1D1A704EF2000381
:1092F000C4F20103A0229B5CDBB2FA1D12789A42F1
:1093000034D04EF20003C4F2010336229B5CDBB280
:109310005BB9C0464EF20003C4F201033C229B5CE1
:10932000DB07DB0FDBB2012BF4D1C0464EF20003AA
:10933000C4F20103A0229B5CDB06DB0FDBB2002B37
:10934000F4D14EF20003C4F20103FA1DA0211278F9
:109350005A54C0464EF20003C4F20103A0229B5CA3
:10936000DB06DB0FDBB2002BF4D100E0C046BD46CC
:1093700002B080BD80B582B000AF4EF20003C4F2EF
:10938000010326229B5CDBB27B6044F2D403C2F271
:1093900000037A689200D2584EF20003C4F201032F
:1093A0001B6A5B015B0FDBB2DA4044F20C13C2F2C2
:1093B00000031A60C046BD4602B080BD80B500AF54
:1093C0004EF20003C4F201033122012199544FF6F9
:1093D000C473C4F27E0301221A704EF20003C4F279
:1093E00001032622002199544EF20003C4F2010326
:1093F00040F200121A62FFF7BDFFC046BD4680BDB5
:1094000080B500AF44F2D403C2F2000346F6004236
:10941000C0F2DC221A6044F2D403C2F2000341F22B
:109420000022C0F27A025A6044F2D403C2F200036E
:1094300048F200029A6044F2D403C2F2000342F6FA
:109440000052C0F23112DA6044F2D403C2F20003D7
:1094500048F200021A61FFF78DFFC046BD4680BD8D
:1094600080B500AF4EF20003C4F2010340F2FE32B9
:109470002F4999524CF20003C4F27E0343F6C8729E
:1094800000219954FFF7BCFF4EF20003C4F2010320
:1094900040F21342002199544EF20003C4F201033A
:1094A000A222092199544EF20003C4F2010340F2B2
:1094B00080429B5CDBB27BB14EF20003C4F201033D
:1094C00040F28142002199544EF20003C4F201039C
:1094D00040F28042002199540020FFF701FF4EF234
:1094E0000003C4F20103362200219954C0464EF213
:1094F0000003C4F201033C229B5CDB07DB0FDBB201
:10950000012BF4D1FFF75AFF4EF20003C4F201031E
:1095100040F2FE32074999524CF20003C4F27E0336
:1095200043F6C87201219954C046BD4680BDC0466D
:1095300003A5FFFF00A5FFFF80B582B000AF0023A9
:109540007B6012E04EF25463C0F200037A689B180D
:109550001A7846F20003C4F2000311007A68C032A0
:109560009200D1507B6801337B607B681F2BE9D967
:10957000C046C046BD4602B080BDFFFF80B586B084
:1095800000AF0200FB1D1A7000237B61EFF3108314
:10959000FB60FB687B6101233B613B6983F31088BF
:1095A000C046FB1D1A7844F20413C2F200035200B5
:1095B000D35A9BB283B1FB1D1A7844F20413C2F252
:1095C00000035100CB5A9BB2013B99B244F2041301
:1095D000C2F200035200D152FB1D1A7844F2041368
:1095E000C2F200035200D35A9BB2EBB94EF2000311
:1095F000C4F2010340F2FE329B5A9BB20F4A13435E
:109600009AB2FB1D19784EF27463C0F20003490050
:10961000CB5ADB4399B24EF20003C4F201030A4075
:1096200091B240F2FE3299527B69BB60BB6883F312
:109630001088C046C046BD4606B080BD00A5FFFFED
:1096400080B586B000AF0200FB1D1A7000237B615D
:10965000EFF31083FB60FB687B6101233B613B6997
:1096600083F31088C046FB1D1A7844F20413C2F23B
:1096700000035200D35A9BB2DBB94EF20003C4F28E
:10968000010340F2FE329B5A9AB2FB1D19784EF24A
:109690007463C0F200034900CB5A13439AB24EF2EE
:1096A0000003C4F2010310490A4391B240F2FE32B2
:1096B0009952FB1D1A7844F20413C2F200035100C0
:1096C000CB5A9BB2013399B244F20413C2F20003A5
:1096D0005200D1527B69BB60BB6883F31088C046DF
:1096E000C046BD4606B080BD00A5FFFF80B500AFF7
:1096F00000F008F804F054FFC046FDE780B500AF65
:10970000C046FDE780B582B000AF4EF60053CEF202
:10971000000348F60042C0F200029A604CF20003D7
:10972000C4F27E03902201219954FFF799FE00F0C4
:1097300079F840F60053C4F2000300229A8040F604
:109740000053C4F20003364A1A8040F60053C4F2B4
:10975000000344F67812C2F200029A6040F6005309
:10976000C4F2000344F67852C2F20002DA6046F214
:109770000003C4F2000340F2201241F200019952AA
:1097800040F60053C4F2000301229A8044F278723A
:10979000C2F2000244F2E803C2F20003D21A44F219
:1097A000E803C2F200030021180004F035FF44F280
:1097B000D402C2F2000244F28003C2F20003D21AC1
:1097C0004EF2C461C0F2000144F28003C2F2000311
:1097D000180004F029FF44F2D002C2F2000244F261
:1097E000CC03C2F20003D31A9B103B6000237B60C2
:1097F0000AE044F2CC03C2F200037A689200D35824
:1098000098477B6801337B607A683B689A42F0DB5B
:10981000FFF7B0FDFFF790FEC046BD4602B080BD29
:1098200000A5FFFF80B588B000AFFB1C00221A70B6
:109830000023FB61FB1C1B780120FFF701FFEFF306
:1098400010837B607B68FB610123BB60BB6883F393
:109850001088C04647F20003C4F204035A6847F276
:109860000003C4F204032C490A405A6047F2000383
:10987000C4F204035B68FB69FB60FB6883F3108838
:10988000C04640F60003C4F204031B68DB07DB0F8D
:10989000DBB21A00FB1C1A7040F60003C4F204038A
:1098A0001B68DB07DB0FDBB21A00FB1C1A7040F6EB
:1098B0000003C4F204031B68DB07DB0FDBB21A00F2
:1098C000FB1C1A70EFF310833B613B69FB610123C2
:1098D0007B617B6983F31088C04647F20003C4F2C2
:1098E00004035A6847F20003C4F2040380214905C7
:1098F0000A435A6047F20003C4F204035B68FB6941
:10990000BB61BB6983F31088C0460120FFF736FEB8
:10991000C046BD4608B080BDFFFFFFEF80B586B0F2
:1099200000AF44F21C13C2F200037B6100233B61D1
:1099300058E07B691B68BB60BB681B687B607B6809
:109940001B78DBB2180000F055F803003B6044F2CE
:109950001413C2F200031B7801225340DBB23BB95F
:109960007B685B78DBB201225340DBB203B900E0D5
:10997000FEE70E23FB1800221A8024E044F21413A1
:10998000C2F200031B7973B90E217B181B885B00A0
:109990003A68D3181A887B181B885B003968CB1883
:1099A000120992B21A800E217B181B885B003A685C
:1099B000D3181B881A003B699B183B617B181A88D7
:1099C0007B1801321A800E23FB181B88002BD5D080
:1099D0003B691B099AB2BB689A8000233B617B6993
:1099E0009B687B617B69002BA3D1C046C046BD4606
:1099F00006B080BD80B582B000AF0200FB1D1A70BA
:109A0000FB1D1B785A0044F25813C2F20003D3180E
:109A10001800BD4602B080BD80B584B000AF46F2EC
:109A20005033C4F200031A6846F25033C4F2000304
:109A30001C490A401A6044F21C13C2F20003FB6086
:109A40000B23FB1800221A7015E0FB681B687B6073
:109A50007B681B683B600B22BB181B78BA18591C2B
:109A600011701900142000F0C3FA3B6801225A70EB
:109A7000FB689B68FB60FB68002BE6D1FFF74EFF9D
:109A800044F21013C2F200031B689B6933B144F225
:109A90001013C2F200031B689B699847C046BD467D
:109AA00004B080BDFFFFFEFFF0B585B000AF786069
:109AB0000F257B197A68927D1A700E23FB187A683D
:109AC000D27D1A7045F20043C4F200031B7BDAB268
:109AD00045F20043C4F2000301218A43D2B21A7353
:109AE00045F20043C4F200031B78DAB245F20043AA
:109AF000C4F2000310218A43D2B21A707B681800A6
:109B000000F052FB7B681B7EE3B90D26BC197B1964
:109B10001B78180000F0D6FE03002370BB191A78DA
:109B20007B689B7D180013005B009B181B0144F2AF
:109B30006412C2F20002991844F20003C2F2000358
:109B40008200D1507B681B7E012B32D10C257C1901
:109B50000E23FB181B78180000F0B4FE03002370DE
:109B60007B191A787B68DB7D180013005B009B185B
:109B70001B0144F26412C2F20002991844F200037D
:109B8000C2F200038200D1507B68DB7D9B0046F26D
:109B9000003CC4F2000C63441A687B68DB7D9B00C8
:109BA00046F2003CC4F2000C6344802149040A439D
:109BB0001A6045F20043C4F2000344F20002C2F20C
:109BC00000025A6045F20043C4F200031B7BDAB284
:109BD00045F20043C4F2000301210A43D2B21A73D2
:109BE0007B6801229A767B680122DA76C046BD4600
:109BF00005B0F0BDB0B584B000AF0200FB1D1A7017
:109C0000BB1D0A1C1A700F257C19FB1D1B78180040
:109C100000F058FE030023702C003B191B78642BC6
:109C20002BD0FB1D1B7843B33B191878BB1D19784B
:109C300044F25422C2F200020B00DB005B1A9B00CC
:109C4000542141435B18D31804331B8898B23B1945
:109C50001978BB1D1C7844F26413C2F200030A0099
:109C600052005218121912019B1808335B681B0C22
:109C70009BB2C31A9BB21BB201E001235B421800E6
:109C8000BD4604B0B0BDB0B584B000AF0200FB1D4E
:109C90001A70BB1D0A1C1A700F257C19FB1D1B783E
:109CA000180000F00FFE030023702A00BB181B7879
:109CB000642B16D0FB1D1B789BB1BB181878BB1DFD
:109CC000197844F25422C2F200020B00DB005B1A46
:109CD0009B00542141435B18D3181B331B78DBB224
:109CE00000E000231800BD4604B0B0BDF0B587B059
:109CF00000AFBA607B600F257B19021C1A700C2321
:109D0000FB180A1C1A801723FB1800221A7016264B
:109D1000BC197B191B78180000F0D4FD03002370D8
:109D2000BB191B78642B00D1B6E07B191B78002B84
:109D300000D1B1E0C04616243B1918781726BB198C
:109D4000BA19127801321A70BB19197844F25422E8
:109D5000C2F200020B00DB005B1A9B00542141435E
:109D60005B18D31808331A68120C5B681B041B0CB1
:109D70001B041343002BDED115257B19BA19127869
:109D8000013A1A703B1919787B19187844F2641358
:109D9000C2F200030A0052005218121812019B1856
:109DA0000433BA681A603B1919787B19187844F2A1
:109DB0006413C2F200030A00520052181218120172
:109DC0009B1808330C26BA1911885A680904120422
:109DD000120C0A435A603B1918787B19197844F21F
:109DE0005422C2F200020B00DB005B1A9B005421DC
:109DF00041435B18D3180433BA1912881A803B19EF
:109E000018787B19197844F25422C2F200020B0030
:109E1000DB005B1A9B00542141435B18D3181B33B2
:109E200000221A703B1918787B19197844F25422D1
:109E3000C2F200020B00DB005B1A9B00542141437D
:109E40005B18D318083306333A1D10881A8800218E
:109E50000A40111C021C0A431A80BA1D10885A8835
:109E600000210A40111C021C0A435A800F217B1852
:109E70001B789B0046F2003CC4F2000C63441A6855
:109E80007B181B789B0046F2003CC4F2000C634434
:109E9000802149040A431A60C046BD4607B0F0BDA0
:109EA000B0B584B000AF0200FB1D1A70BB1D0A1CC8
:109EB0001A70FB1D1B789B0046F2003CC4F2000C9C
:109EC00063441A68FB1D1B789B0046F2003CC4F2F9
:109ED000000C634445490A401A600F257C19FB1D9C
:109EE0001B78180000F0EEFC030023702C003B19D7
:109EF0001B78642B75D0FB1D1B78002B71D03B1990
:109F00001978BB1D187844F26413C2F200030A00EA
:109F100052005218121812019B1808335B681B0C70
:109F20009BB2002B51D144F28003C2F200031B7894
:109F3000022B4AD13B191878BB1D197844F25422E0
:109F4000C2F200020B00DB005B1A9B00542141436C
:109F50005B18D3181B3301221A703B191878BB1DEC
:109F6000197844F25422C2F200020B00DB005B1AA3
:109F70009B00542141435B18D31808335A68120CD4
:109F80009B681B041B0C1B041343C3B13B191878BB
:109F9000BB1D197844F25422C2F200020B00DB0010
:109FA0005B1A9B00542141435B18D31808335A684D
:109FB000120C9B681B041B0C1B041343984744F2B0
:109FC0008003C2F2000300221A7044F28003C2F23E
:109FD00000031B780133DAB244F28003C2F20003BB
:109FE0001A70C046BD4604B0B0BDC046FFFFFEFFBC
:109FF000F0B585B000AF0200FB1D1A70BB1D0A1C36
:10A000001A70FB1D1B789B0046F2003CC4F2000C4A
:10A0100063441A68FB1D1B789B0046F2003CC4F2A7
:10A02000000C63445F490A401A600F257C19FB1D30
:10A030001B78180000F046FC030023702C003B192D
:10A040001B78642B00D1A8E0FB1D1B78002B00D1EE
:10A05000A3E03B191878BB1D197844F25422C2F2D0
:10A0600000020B00DB005B1A9B00542141435B188C
:10A07000D31810331A68120C5B681B041B0C1B04EA
:10A080001343C3B13B191878BB1D197844F254220D
:10A09000C2F200020B00DB005B1A9B00542141431B
:10A0A0005B18D31810331A68120C5B681B041B0C66
:10A0B0001B04134398470F26BB191978BB1D18784A
:10A0C00044F26413C2F200030A005200521812183C
:10A0D00012019B1808335B681B0C9BB2002B5CD1F0
:10A0E000BB191D78BB1D1878BB191978BB1D1C78CE
:10A0F00044F25422C2F200020300DB001B1A9B0050
:10A10000542068431B18985844F26413C2F20003A9
:10A110000A0052005218121912019B1808331860D5
:10A12000BB191D78BB1D1878BB191978BB1D1C788D
:10A1300044F25422C2F200020300DB001B1A9B000F
:10A14000542068431B18D31804331B8898B244F278
:10A150006413C2F200030A005200521812191201CD
:10A160009B1808335A6801041204120C0A435A60FF
:10A17000FB1D1B789B0046F2003CC4F2000C6344BC
:10A180001A68FB1D1B789B0046F2003CC4F2000CD1
:10A190006344802149040A431A60C046BD4605B0A5
:10A1A000F0BDC046FFFFFEFFF0B585B000AF7860A0
:10A1B0000F23FB187A68927D1A700E23FB187A68B9
:10A1C000D27D1A707B681B7E13B1012B2DD059E014
:10A1D0000F23FB181B780BB9C046FDE70F257B1931
:10A1E0001B78180000F0A5FB0C26BC197B191B7806
:10A1F000180000F067FB03002370BB191A7844F2C3
:10A200005423C2F2000354214A439B181A331B788B
:10A21000DBB223B17B68180000F0A2FA32E07B6861
:10A220000021180000F032F82CE00E23FB181B78F8
:10A230000BB9C046FDE70E257B191B78180000F00E
:10A2400078FB0D26BC197B191B78180000F03AFB2F
:10A2500003002370BB191A7844F25423C2F200039E
:10A2600054214A439B181A331B78DBB223B17B6815
:10A27000180000F075FA04E07B680021180000F077
:10A2800005F8C046C046BD4605B0F0BDB0B584B0C7
:10A2900000AF78600A00FB1C1A700F217B187A68E7
:10A2A000927D1A700E257B197A68D27D1A700D2363
:10A2B000FC187B181B78180000F004FB03002370C7
:10A2C0000C23FC187B191B78180000F0FBFA030024
:10A2D00023707B681B7E1BB1012B00D1F8E033E2B9
:10A2E0000D243B191978FB1C187844F26413C2F250
:10A2F00000030A0052005218121812010021D15016
:10A300003B191978FB1C187844F26413C2F200035D
:10A310000A005200521812181101CA5892009208ED
:10A32000CA503B191978FB1C187844F26413C2F226
:10A3300000030A005200521812181101CA58A1480D
:10A340000240802000050243CA507B685B7E022BDE
:10A350002DD042DC13B1012B13D03EE00D23FB18AE
:10A360001978FB1C187844F26413C2F200030A0047
:10A370005200521812181101CA5893480240CA508C
:10A380002CE00D23FB181978FB1C187844F2641399
:10A39000C2F200030A005200521812181101CA58E2
:10A3A00089480240802040050243CA5016E00D2330
:10A3B000FB181978FB1C187844F26413C2F20003EE
:10A3C0000A005200521812181101CA587E48024061
:10A3D000802080050243CA5000E0C0460D257B194D
:10A3E0001978FB1C187844F26413C2F200030A00C7
:10A3F0005200521812181101CA5874480240CA502B
:10A400007B191978FB1C187844F26413C2F200031C
:10A410000A005200521812181101CA586C48024022
:10A42000CA507B191978FB1C187844F26413C2F2E5
:10A4300000030A005200521812181101CA58654848
:10A440000240CA507B191978FB1C187844F2641337
:10A45000C2F200030A005200521812181101CA5821
:10A460005D480240CA507B191978FB1C18787B683C
:10A470009A7ADC7A240222431C7B240422435B7BED
:10A480001B0613431C0044F26413C2F200030A00CB
:10A4900052005218121812019B1808331C607B6876
:10A4A00001229A767B191878FB1C197844F2542201
:10A4B000C2F200020B00DB005B1A9B0054214143F7
:10A4C0005B187968D3181C22180004F0ADF83BE142
:10A4D0000C243B191978FB1C187844F26413C2F25F
:10A4E00000030A0052005218121812010021D15024
:10A4F0003B191978FB1C187844F26413C2F200036C
:10A500000A005200521812181101CA5892009208FB
:10A51000CA503B191978FB1C187844F26413C2F234
:10A5200000030A005200521812181101CA58254897
:10A530000240CA507B685B7E022B2DD04EDC13B1EB
:10A54000012B13D04AE00C23FB181978FB1C187858
:10A5500044F26413C2F200030A00520052181218A7
:10A560001101CA5818480240CA5038E00C23FB18A1
:10A570001978FB1C187844F26413C2F200030A0035
:10A580005200521812181101CA580F480240802078
:10A5900040050243CA5022E00C23FB181978FB1C2B
:10A5A000187844F26413C2F200030A0052005218F1
:10A5B00012181101CA580448024080208005024345
:10A5C000CA500CE0FFFFFFF3FFFFFFCFFFFFF3FFD9
:10A5D000FFFF7FFFFFFFBFFFFFFFDFFFC0460C2431
:10A5E0003B191978FB1C187844F26413C2F200037B
:10A5F0000A005200521812181101CA585448024059
:10A60000802000030243CA5025007B191978FB1CE7
:10A61000187844F26413C2F200030A005200521880
:10A6200012181101CA584B480240CA507B191978B8
:10A63000FB1C187844F26413C2F200030A005200B3
:10A64000521812181101CA5843480240CA507B19C7
:10A650001978FB1C187844F26413C2F200030A0054
:10A660005200521812181101CA583C480240CA50F0
:10A670007B191978FB1C18787B689A79DC7924029D
:10A6800022431C7A240422435B7A1B0613431C00DA
:10A6900044F26413C2F200030A0052005218121866
:10A6A00012019B1804331C607B191978FB1C187865
:10A6B0007B681A785C78240222439C782404224325
:10A6C000DB781B0613431C0044F26413C2F2000340
:10A6D0000A0052005218121812019B1808331C600D
:10A6E0007B191978FB1C1C787B681A795B791B0233
:10A6F000134398B244F26413C2F200030A005200FA
:10A700005218121912019B1808335A6801041204D6
:10A71000120C0A435A607B6801229A767B191878DA
:10A72000FB1C197844F25422C2F200020B00DB0039
:10A730005B1A9B00542141435B187968D3181C2293
:10A74000180003F071FFC046C046BD4604B0B0BD5E
:10A75000FFFFF3FFFFFF7FFFFFFFBFFFFFFFDFFFF5
:10A76000B0B584B000AF78600E217B187A68927D16
:10A770001A700D257B197A68D27D1A700C23FC188B
:10A780007B181B78180000F09DF8030023700B2342
:10A79000FC187B191B78180000F094F80300237054
:10A7A0000F23FB1800221A707B681B7E13B1012B4C
:10A7B00042D083E0C0460C257B1918780F243B1942
:10A7C0003A19127801321A703B19197844F254225E
:10A7D000C2F200020B00DB005B1A9B0054214143D4
:10A7E0005B18D31808331A68120C5B681B041B0C27
:10A7F0001B041343002BDED10A203B183A191278B0
:10A80000013A1A707B1919783B18187844F26413CE
:10A81000C2F200030A005200521812181101CA585D
:10A82000802000040243CA503B191A787B6811004B
:10A830001800FFF72BFD41E0C0460B257B19187867
:10A840000F243B193A19127801321A703B19197802
:10A8500044F25422C2F200020B00DB005B1A9B00A0
:10A86000542141435B18D1184968090CD3189B68DF
:10A870001B041B0C1B040B43002BDED10A203B18CE
:10A880003A191278013A1A707B1919783B1818781E
:10A8900044F26413C2F200030A0052005218121864
:10A8A0001101CA58802000040243CA503B191A788B
:10A8B0007B6811001800FFF7E9FCC046C046BD46A2
:10A8C00004B0B0BD80B584B000AF0200FB1D1A70AB
:10A8D0000F23FB1864221A70FB1D1B7813B30E2381
:10A8E000FB1800221A7018E00E217B181A7844F227
:10A8F000F833C2F200039B5CDBB2FA1D12789A4275
:10A9000005D10F23FB187A1812781A700AE00E216D
:10A910007B181A787B1801321A700E23FB181B78EB
:10A92000042BE1D90F23FB181B781800BD4604B097
:10A9300080BDB0B584B000AF0200FB1D1A700F23BC
:10A94000FB1800221A700E257C19FB1D1B781800BD
:10A95000FFF7B8FF030023707B191B78642B23D10A
:10A96000FB1D1B7803B3C0460F203B181B783A1819
:10A97000591C11701A0044F2F833C2F200039B5CB8
:10A98000DBB2002BF0D13B181B78062B01D1C0465F
:10A99000FDE70F23FB181B785A1E44F2F833C2F26E
:10A9A0000003F91D09789954C046BD4604B0B0BDF6
:10A9B00080B582B000AF0200FB1D1A70FB1D1B7832
:10A9C0007F2B12D8FB1D1B781A001F231A40110081
:10A9D0004EF20013CEF20003FA1D127852B2520961
:10A9E0000120884001009200D150C046BD4602B00F
:10A9F00080BD80B582B000AF0200FB1D1A70FB1D48
:10AA00001B787F2B13D8FB1D1B781A001F231A40BD
:10AA100011004EF20013CEF20003FA1D127852B26A
:10AA2000520901208840010060329200D150C04696
:10AA3000BD4602B080BD90B583B000AF0200396062
:10AA4000FB1D1A70FB1D1B787F2B2FD84EF20013B5
:10AA5000CEF20003FA1D127852B29208C032920070
:10AA6000D358FA1D1278110003220A40D200FF21A8
:10AA700091400A00D2431A4010003B689B01FF221C
:10AA80001A40FB1D1B78190003230B40DB009A4082
:10AA900011004EF20013CEF20003FA1D127852B2EA
:10AAA00092080143C0329200D15037E04EF6005375
:10AAB000CEF20003FA1D127811000F220A40083A64
:10AAC0009208063292009B1804331B68FA1D127814
:10AAD000110003220A40D200FF2191400A00D24314
:10AAE0001A4010003B689B01FF221A40FB1D1B7897
:10AAF000190003230B40DB009A404EF60053CEF2C0
:10AB00000003F91D09780C000F212140083989083C
:10AB10000243063189005B1804331A60C046BD4603
:10AB200003B090BD80B500AF43F20003C4F205034B
:10AB30005B7ADBB29B0901221340013B5A4253412D
:10AB4000DBB21800BD4680BD80B500AF43F2000304
:10AB5000C4F205035B7ADBB21A00102313405A4299
:10AB60005341DBB21800BD4680BD80B500AF43F253
:10AB70000003C4F205035B7ADBB2DB090122134058
:10AB8000013B5A425341DBB21800BD4680BD80B53F
:10AB900000AF44F20443C2F200031B681800BD4634
:10ABA00080BD80B500AF44F20843C2F20003180034
:10ABB000BD4680BD80B500AF44F21443C2F200032D
:10ABC0000022DA8044F21443C2F2000300225A71D8
:10ABD00044F21443C2F2000305221A7244F21443F1
:10ABE000C2F2000300225A7044F21443C2F200037E
:10ABF00000229A7044F21443C2F2000300221A7039
:10AC000044F21443C2F200030022DA7044F2144307
:10AC1000C2F2000300221A71C046BD4680BDFFFF8C
:10AC200080B500AFFFF7BDFF03009B79052B50D81F
:10AC30009A00414BD3181B689F4644F2FD33C2F281
:10AC4000000316221A7044F2FE33C2F200031222ED
:10AC50001A7044F2FF33C2F2000302221A7038E085
:10AC600044F2FD33C2F2000306221A7044F2FE33AE
:10AC7000C2F2000305221A7044F2FF33C2F200034D
:10AC800001221A7025E044F2FD33C2F200031122C2
:10AC90001A7044F2FE33C2F2000310221A7044F21A
:10ACA000FF33C2F2000301221A7012E044F2FD33B6
:10ACB000C2F2000315221A7044F2FE33C2F20003FE
:10ACC00013221A7044F2FF33C2F2000301221A70F9
:10ACD000C04644F2FD33C2F200031A7843F2000387
:10ACE000C4F20503202149420A43D2B21A7444F245
:10ACF000FE33C2F200031A7843F20003C4F20503E4
:10AD0000202149420A43D2B25A7444F2FF33C2F2BC
:10AD100000031B785BB21B015BB2702213405BB275
:10AD2000082213435AB243F20003C4F20503D2B21D
:10AD30009A70C046BD4680BD7CE6000080B582B0FA
:10AD400000AF00237B6000233B607B6880225202BF
:10AD500013437B603B688022520213433B607B6855
:10AD6000402213437B603B68402213433B607B6877
:10AD7000E022D20413437B603B68E022D2041343F9
:10AD80003B6040F60003C4F2040340F203529B5CB4
:10AD9000DAB240F60003C4F204037F210A40D1B2C4
:10ADA00040F20352995440F60003C4F2040340F207
:10ADB00003529B5CDAB240F60003C4F20403402164
:10ADC0000A43D1B240F20352995440F60003C4F250
:10ADD000040344F28202C2F200021288013A111204
:10ADE00044F28202C2F200021288013A10000F22DD
:10ADF000024009018A1892003968D15040F60003D8
:10AE0000C4F2040344F28402C2F200021288013A3E
:10AE1000111244F28402C2F200021288013A1000B8
:10AE20000F22024009018A1892007968D15040F639
:10AE30000003C4F2040340F203529B5CDAB240F612
:10AE40000003C4F2040340218A43D1B240F203520A
:10AE5000995440F60003C4F2040340F203529B5C91
:10AE6000DAB240F60003C4F20403802149420A43E7
:10AE7000D1B240F203529954C046BD4602B080BDE3
:10AE800080B500AF44F21443C2F2000301221A70ED
:10AE900043F20003C4F20503DB79DAB243F20003A4
:10AEA000C4F2050301210A43D2B2DA7143F200036E
:10AEB000C4F20503DB79DAB243F20003C4F20503FE
:10AEC00002210A43D2B2DA7143F20003C4F205034D
:10AED000DB79DAB243F20003C4F2050310210A431E
:10AEE000D2B2DA7143F20003C4F20503DB79DAB2BD
:10AEF00043F20003C4F2050320210A43D2B2DA71FF
:10AF000043F20003C4F20503DB79DAB243F2000333
:10AF1000C4F20503802149420A43D2B2DA71C04625
:10AF2000BD4680BD80B500AF46F20003C4F2000309
:10AF300040F200320A21995002210020FFF77BFDE8
:10AF40000020FFF735FD46F20003C4F2000340F293
:10AF500004320821995002210120FFF76CFD0120E5
:10AF6000FFF726FD46F20003C4F2000340F2083268
:10AF70000621995002210220FFF75DFD0220FFF714
:10AF800017FD46F20003C4F2000340F20C32062122
:10AF9000995002210320FFF74EFD0320FFF708FD23
:10AFA000C046BD4680BDFFFF80B582B000AF78606F
:10AFB00047F20003C4F204031A6847F20003C4F224
:10AFC00004032F490A401A60FFF7B8FE43F200035A
:10AFD000C4F205031B78DAB243F20003C4F205039E
:10AFE0007F210A40D2B21A7043F20003C4F2050373
:10AFF0001B78DAB243F20003C4F2050340210A438E
:10B00000D2B21A7043F20003C4F205031B78DAB21D
:10B0100043F20003C4F20503802149420A43D2B23D
:10B020001A70FFF7FDFD43F20003C4F20503072287
:10B03000DA7043F20003C4F2050377225A7143F237
:10B040000003C4F2050300229A7143F20003C4F224
:10B050000503B322DA71FFF765FF43F20003C4F280
:10B0600005031B78DAB243F20003C4F20503402162
:10B070008A43D2B21A70C046BD4602B080BDC046F7
:10B08000FFFDFFFF80B584B000AF786047F200039A
:10B09000C4F204031A6847F20003C4F204035249DD
:10B0A0000A401A60FFF74AFE0F203B1803221A706D
:10B0B00043F20003C4F205031B78DAB243F2000343
:10B0C000C4F205037F210A40D2B21A7043F2000392
:10B0D000C4F205031B78DAB243F20003C4F205039D
:10B0E00040210A43D2B21A7043F20003C4F20503AE
:10B0F0001B78DAB243F20003C4F20503802149420F
:10B100000A43D2B21A7043F20003C4F205035B781B
:10B11000DAB243F20003C4F2050340218A43D2B2FB
:10B120005A7043F20003C4F205030022DA727B680E
:10B130001A7943F20003C4F205039218D2B29A724C
:10B1400043F20003C4F205039B79DAB243F2000331
:10B15000C4F2050301210A43D2B29A7143F20003FB
:10B16000C4F205030222DA703B181B780BB17D2272
:10B1700000E05D2243F20003C4F205035A710F227E
:10B18000BB181B782BB1BB181B78013BDBB25AB242
:10B1900000E0002244F20043C2F200031B785BB2DD
:10B1A0009B015BB213435AB243F20003C4F205039E
:10B1B000D2B21A7143F20003C4F20503A022DA717D
:10B1C000FFF7B0FE43F20003C4F205031B78DAB2C6
:10B1D00043F20003C4F2050340218A43D2B21A703D
:10B1E000C046BD4604B080BDFFFDFFFFB0B500AF57
:10B1F00046F20003C4F2000340F204329A5846F2C9
:10B200000003C4F2000339490A4040F204315A50A5
:10B2100044F21443C2F200031B7801225340DBB214
:10B220008BB3FFF72DFE44F21443C2F20003042255
:10B230001A7243F20003C4F205035B7ADAB243F2F6
:10B240000003C4F2050308218A43D2B25A7243F2C2
:10B250000003C4F205035B7ADAB243F20003C4F2DE
:10B26000050304218A43D2B25A7243F20003C4F2A6
:10B270000503DB79DAB243F20003C4F205030821C7
:10B280000A43D2B2DA7144F21443C2F20003DC88FA
:10B29000FFF77DFC03001B899C4207D3FFF754FC9A
:10B2A00003001A0001235340DBB2E3B1FFF76FFC48
:10B2B00003005A6844F21443C2F20003DB88D21838
:10B2C00043F20003C4F205031278D2B29A7444F236
:10B2D0001443C2F20003DB8801339AB244F21443F0
:10B2E000C2F20003DA80C046BD46B0BDFFFFFEFFDC
:10B2F00090B583B000AF46F20003C4F2000340F201
:10B3000000329A5846F20003C4F200038C490A4006
:10B3100040F200315A5044F21443C2F200035B7809
:10B3200001225340DBB2002B00D17BE0FFF742FC4F
:10B3300044F21443C2F2000301225A7043F20003A4
:10B34000C4F20503DB7CDAB2FB1D1A70FB1D1B780F
:10B35000DBB21A000123134073B143F20003C4F2BD
:10B3600005035B7ADAB243F20003C4F20503082155
:10B370008A43D2B25A721BE043F20003C4F20503BF
:10B380005B7ADAB243F20003C4F2050308218A4370
:10B39000D2B25A7243F20003C4F205035B7ADAB206
:10B3A00043F20003C4F2050304218A43D2B25A7265
:10B3B00043F20003C4F20503DB79DAB243F200037F
:10B3C000C4F2050320210A43D2B2DA7143F200032A
:10B3D000C4F20503DB79DAB243F20003C4F20503D9
:10B3E000802149420A43D2B2DA7143F20003C4F227
:10B3F0000503DB79DAB243F20003C4F2050304214A
:10B400000A43D2B2DA7143F20003C4F20503DB79D6
:10B41000DAB243F20003C4F2050308210A43D2B2B0
:10B42000DA7189E044F21443C2F200031B7801226E
:10B430005340DBB23BB1FFF723FD44F21443C2F2A9
:10B44000000303221A72FFF7A2FB03001B8953B10A
:10B4500044F21443C2F20003DC88FFF798FB0300B8
:10B460001B899C4235D343F20003C4F20503DB7C05
:10B47000DAB2BB1D1A70BB1D1B7843F20003C4F285
:10B4800005031B79DAB243F20003C4F2050310216D
:10B490000A43D2B21A7143F20003C4F205031B79C6
:10B4A000DAB243F20003C4F2050308210A43D2B220
:10B4B0001A7143F20003C4F205031B79DAB243F2B6
:10B4C0000003C4F2050310218A43D2B21A71C046A8
:10B4D00032E043F20004C4F20504FFF758FB030016
:10B4E0005A6844F21443C2F20003DB88D318E27CAA
:10B4F000D2B21A7044F21443C2F20003DB88013363
:10B500009AB244F21443C2F20003DA8044F2870391
:10B51000C2F2000340221A70FFF739FB03005B6997
:10B5200023B1FFF734FB03005B69984744F28703BC
:10B53000C2F2000341221A70C046BD4603B090BD5E
:10B54000FFFFFEFF80B582B000AF43F20003C4F2FC
:10B5500005035B7ADAB2FB1D1F210A401A7043F221
:10B560000003C4F20503E0225A72FB1D1B7801227E
:10B5700013402BB9FB1D1B7802221340002B4FD028
:10B5800044F21443C2F2000301229A7044F21443BD
:10B59000C2F2000300221A72FB1D1B780122134025
:10B5A00033B144F28703C2F2000301221A700AE0A9
:10B5B000FB1D1B78022213402BB144F28703C2F219
:10B5C000000302221A70FFF7E2FA0300DB6923B1DD
:10B5D000FFF7DDFA0300DB69984744F28703C2F204
:10B5E000000341221A7043F20003C4F205035B7AA0
:10B5F000DAB243F20003C4F2050301218A43D2B256
:10B600005A7243F20003C4F205035B7ADAB243F2E2
:10B610000003C4F2050302218A43D2B25A72B2E097
:10B62000FB1D1B78042213402BB9FB1D1B7808223D
:10B630001340002B6ED043F20003C4F205035B7A83
:10B64000DAB243F20003C4F2050310218A43D2B2F6
:10B650005A7243F20003C4F205035B7ADAB243F292
:10B660000003C4F2050304218A43D2B25A7243F2A2
:10B670000003C4F205035B7ADAB243F20003C4F2BA
:10B68000050308218A43D2B25A7244F21443C2F22B
:10B6900000031B7A032B06D144F21443C2F20003C9
:10B6A00001221A7205E044F21443C2F2000302229E
:10B6B0001A72FB1D1B780422134033B144F2870336
:10B6C000C2F2000304221A700AE0FB1D1B78082254
:10B6D00013402BB144F28703C2F2000308221A7010
:10B6E000FFF755FA03009B696BB144F21443C2F2B1
:10B6F00000039B7801225340DBB223B1FFF747FAE6
:10B7000003009B69984744F28703C2F20003412279
:10B710001A7038E0FB1D1B78102213409BB343F2D4
:10B720000003C4F20503DB7CDAB2BB1D1A70BB1D3B
:10B730001B7844F21443C2F2000301229A7043F2D0
:10B740000003C4F20503DB79DAB243F20003C4F26A
:10B75000050310218A43D2B2DA7144F28703C2F2A0
:10B76000000310221A70FFF712FA0300DB6923B1FD
:10B77000FFF70DFA0300DB69984744F28703C2F232
:10B78000000341221A70FFF715FA46F20003C4F2D3
:10B79000000340F20C329A5846F20003C4F2000350
:10B7A00004490A4040F20C315A50C046BD4602B02E
:10B7B00080BDC046FFFFFEFF80B500AF46F200032C
:10B7C000C4F2000340F208329A5846F20003C4F271
:10B7D000000304490A4040F208315A50C046BD46B1
:10B7E00080BDC046FFFFFEFF80B582B000AF020003
:10B7F000FB1D1A7044F21443C2F200031B7A0A2B99
:10B800000BD144F21443C2F20003DB782BB944F2AB
:10B810001443C2F200039B78D3B1FB1D1B78BBB16C
:10B8200043F20003C4F205030022DA7144F28103FB
:10B83000C2F2000300221A7044F20143C2F2000374
:10B8400000221A70FFF7ADF90300180000F0F2FBB8
:10B8500043F20003C4F20503B322DA71C046BD46C9
:10B8600002B080BDB0B500AF44F21443C2F2000391
:10B870001B7A092B54D000DD81E0052B02D0062B6A
:10B880001ED07CE0FFF783F903001A7843F200032F
:10B89000C4F205039218D2B29A74FFF778F9030044
:10B8A0009B7B33B144F21443C2F2000306221A72A6
:10B8B00068E044F21443C2F2000309221A7261E004
:10B8C000FFF765F9020044F21443C2F200035B790A
:10B8D000190043F20003C4F205035218927A9A74D5
:10B8E00044F21443C2F200035B790133DAB244F24A
:10B8F0001443C2F200035A7144F21443C2F200032B
:10B900005C79FFF744F903009B7B9C4201D3092239
:10B9100000E0062244F21443C2F200031A7231E03E
:10B92000FFF735F903005A6844F21443C2F20003EA
:10B93000DB88D21843F20003C4F205031278D2B2B6
:10B940009A7444F21443C2F20003DB8801339AB2C2
:10B9500044F21443C2F20003DA8044F21443C2F208
:10B960000003DC88FFF713F903001B899C4208D30E
:10B9700044F21443C2F200030A221A7201E0C046E4
:10B9800000E0C046C046BD46B0BDB0B500AF44F211
:10B990001443C2F200031B7A072B61D000DD87E05D
:10B9A000052B02D0062B1ED082E0FFF7F0F8030033
:10B9B0001A7843F20003C4F205039218D2B29A74C3
:10B9C000FFF7E5F803009B7B33B144F21443C2F266
:10B9D000000306221A726EE044F21443C2F200031E
:10B9E0000A221A7267E0FFF7D2F8020044F2144309
:10B9F000C2F200035B79190043F20003C4F20503AD
:10BA00005218927A9A7444F21443C2F200035B799A
:10BA10000133DAB244F21443C2F200035A7144F221
:10BA20001443C2F200035C79FFF7B1F803009B7B7B
:10BA30009C4201D30A2200E0062244F21443C2F2DF
:10BA400000031A7244F21443C2F200031B7A0A2B59
:10BA500030D144F21443C2F200030122DA7029E02B
:10BA600044F21443C2F200031B7973B1FFF78FF85D
:10BA700003001B785B005BB2012213435AB243F20E
:10BA80000003C4F20503D2B29A7444F21443C2F222
:10BA900000030A221A7244F21443C2F20003002285
:10BAA000DA7044F21443C2F2000300221A7102E079
:10BAB000C04600E0C046C046BD46B0BD80B500AF40
:10BAC00044F21443C2F200031B7A052B15D1FFF791
:10BAD0005EF803001B785B005BB2012213435AB28D
:10BAE00043F20003C4F20503D2B29A7444F2144341
:10BAF000C2F200030A221A7200E0C046C046BD46E8
:10BB000080BDB0B500AFFFF742F803001B891A00F3
:10BB100044F21443C2F20003DB88D31A022B1CDD6B
:10BB200043F20003C4F205031B79DAB243F20003C7
:10BB3000C4F2050310210A43D2B21A7143F2000382
:10BB4000C4F205031B79DAB243F20003C4F2050321
:10BB500008218A43D2B21A714AE0FFF718F80300AD
:10BB60001B891A0044F21443C2F20003DB88D31A83
:10BB7000022B1CD143F20003C4F205031B79DAB295
:10BB800043F20003C4F2050310210A43D2B21A7132
:10BB900043F20003C4F205031B79DAB243F2000357
:10BBA000C4F2050308210A43D2B21A7120E0FEF75D
:10BBB000EEFF03001B891A0044F21443C2F2000393
:10BBC000DB88D31A012B13D143F20003C4F205031F
:10BBD0005B7ADAB243F20003C4F2050308218A4318
:10BBE000D2B25A7243F20003C4F2050308225A701B
:10BBF00043F20004C4F20504FEF7C9FF03005A68CB
:10BC000044F21443C2F20003DB88D318E27CD2B2C0
:10BC10001A7044F21443C2F20003DB8801339AB273
:10BC200044F21443C2F20003DA8044F28603C2F203
:10BC3000000340221A70FEF7AAFF03005B6923B1DC
:10BC4000FEF7A5FF03005B69984744F28603C2F242
:10BC5000000341221A70FEF79AFF03001A8944F28A
:10BC60001443C2F20003DB889A420DD143F2000371
:10BC7000C4F205031B79DAB243F20003C4F20503F0
:10BC800040218A43D2B21A71C046BD46B0BDFFFF03
:10BC900080B582B000AFC0237B6044F21443C2F28F
:10BCA0000003DB78002B43D044F21443C2F20003BC
:10BCB0001B7901225340DBB2D3B30120FEF799FE7A
:10BCC00043F20003C4F20503DB79DAB243F2000366
:10BCD000C4F20503802149420A43D2B2DA7143F229
:10BCE0000003C4F205035B79DAB243F20003C4F245
:10BCF000050301218A43D2B25A7144F21443C2F2BD
:10BD0000000301221A7144F21443C2F20003072215
:10BD10001A7243F20003C4F205035B78DAB243F20D
:10BD20000003C4F2050304210A43D2B25A7036E07C
:10BD3000FEF7F8FE030093B344F21443C2F200038B
:10BD40001B7901225340DBB24BB343F20003C4F230
:10BD500005035B7ADAB243F20003C4F2050308215B
:10BD60008A43D2B25A7243F20003C4F20503082296
:10BD70005A7044F28603C2F2000320221A70FEF7C2
:10BD800006FF03001B6923B1FEF701FF03001B69D7
:10BD9000984744F28603C2F2000341221A7046F229
:10BDA0000003C4F2000340F208329A5846F200033E
:10BDB000C4F2000315490A4040F208315A5043F2D8
:10BDC0000003C4F20503DB79DAB243F20003C4F2E4
:10BDD000050340218A43D2B2DA710CE043F200033A
:10BDE000C4F20503DB79DBB21A00402313402BB108
:10BDF0007B68013B7B607B68002BEFD10220FEF764
:10BE0000F8FDC046BD4602B080BDC046FFFFFEFF44
:10BE100080B582B000AF43F20003C4F205035B7A41
:10BE2000DAB2FB1D1F210A401A7043F20003C4F26C
:10BE30000503E0225A72FB1D1B7803221A40FB1DEA
:10BE40001B7810210B4063B143F20003C4F20503D9
:10BE50005B78DBB29B0901210B40012B01D0012350
:10BE600000E0002313437BB344F21443C2F2000307
:10BE700001229A70FB1D1B780122134033B144F25A
:10BE80008603C2F2000301221A700AE0FB1D1B7830
:10BE9000022213402BB144F28603C2F200030222B5
:10BEA0001A70FEF774FE0300DB6923B1FEF76FFE24
:10BEB0000300DB69984744F28603C2F20003412283
:10BEC0001A700120FFF790FCFB1D1B781022134015
:10BED000002B65D043F20003C4F205035B78DBB2AC
:10BEE0009B0901221340012B5AD144F21443C2F2A0
:10BEF000000301229A7043F20003C4F205035B7A47
:10BF0000DAB243F20003C4F2050308218A43D2B235
:10BF10005A7243F20003C4F2050308225A7043F236
:10BF20000003C4F20503DB78DAB243F20003C4F283
:10BF3000050302210A43D2B2DA7043F20003C4F2CD
:10BF40000503DB78DAB243F20003C4F205030121F2
:10BF50000A43D2B2DA7043F20003C4F205035B79FC
:10BF6000DAB243F20003C4F2050301210A43D2B25C
:10BF70005A7144F28603C2F2000310221A70FEF7CF
:10BF800006FE0300DB6923B1FEF701FE0300DB6957
:10BF9000984744F28603C2F2000341221A7033E04C
:10BFA000FB1D1B780822134073B346F20003C4F252
:10BFB000000340F20C329A5846F20003C4F2000328
:10BFC0001B490A4040F20C315A5044F28603C2F237
:10BFD000000308221A70FEF7DAFD03009B696BB1BB
:10BFE00044F21443C2F200039B7801225340DBB2B7
:10BFF00023B1FEF7CCFD03009B69984744F286030A
:10C00000C2F2000341221A7046F20003C4F2000398
:10C0100040F20C329A5846F20003C4F2000304497D
:10C020000A4040F20C315A50C046BD4602B080BDB5
:10C03000FFFFFEFF80B584B000AF78600F217B1852
:10C0400000221A7044F20143C2F200031B7801225D
:10C050005340DBB28BB37B687BB37B681A8844F2B6
:10C060008403C2F200031A807B685A8844F2820378
:10C07000C2F200031A807B1801221A707B68DB79F8
:10C080005BB97B681800FEF78FFF7B68DA7944F2B2
:10C090008103C2F200031A7009E07B681800FEF702
:10C0A000F1FF44F28103C2F2000301221A7044F24C
:10C0B0000143C2F2000301221A700F23FB181B7800
:10C0C0001800BD4604B080BD80B582B000AFC0236B
:10C0D0007B6043F20003C4F205035B7ADBB21A0013
:10C0E00044F21043C2F200031A6044F28103C2F228
:10C0F00000031B78012B02D1FFF778F8CAE044F265
:10C100008103C2F200031B78002B00D0C2E046F28C
:10C110000003C4F2000340F204329A5846F20003CE
:10C12000C4F200035D490A4040F204315A5043F220
:10C130000003C4F205035B7ADBB21A000423134048
:10C14000F3B144F28603C2F2000304221A70FEF730
:10C150001EFD03009B696BB144F21443C2F200035D
:10C160009B7801225340DBB223B1FEF710FD0300A0
:10C170009B69984744F28603C2F2000341221A7079
:10C18000FEF7E2FC0300EBB1FEF7EFFC0300CBB1DE
:10C19000FEF7FDFC0300ABB1FEF7F9FC0300DB7B0F
:10C1A000022B0AD00CDC13B1012B03D008E0FFF7FF
:10C1B00085FC06E0FFF756FB03E0FFF7E6FB00E037
:10C1C000C0463FE043F20003C4F20503DB79DAB274
:10C1D00043F20003C4F205037F210A40D2B2DA71B0
:10C1E0000BE043F20003C4F20503DB79DBB25BB280
:10C1F000002B05DA7B68013B7B607B68002BF0D16C
:10C2000043F20003C4F20503DB79DAB243F2000320
:10C21000C4F2050340218A43D2B2DA710220FEF74C
:10C22000E8FB0CE043F20003C4F20503DB79DBB268
:10C230001A00402313402BB17B68013B7B607B6875
:10C24000002BEFD144F21443C2F200031B7A0A2BF5
:10C2500020D143F20003C4F20503DB79DAB243F2E2
:10C260000003C4F205037F210A40D2B2DA710BE069
:10C2700043F20003C4F20503DB79DBB25BB2002BAF
:10C2800005DA7B68013B7B607B68002BF0D10120E5
:10C29000FEF7AFFBC046BD4602B080BDFFFFFEFF0C
:10C2A00080B582B000AF44F28103C2F200031B7874
:10C2B000012B02D1FFF71CF893E046F20003C4F211
:10C2C000000340F200329A5846F20003C4F2000321
:10C2D00046490A4040F200315A50FB1D00221A70B4
:10C2E00044F21443C2F200035B7801225340DBB2F4
:10C2F000002B63D0FEF74BFC03001B89012B1FD9D9
:10C30000FEF745FC0300DBB143F20003C4F2050372
:10C310001B79DAB243F20003C4F2050310210A4389
:10C32000D2B21A7143F20003C4F205031B79DAB2E8
:10C3300043F20003C4F2050308218A43D2B21A7102
:10C34000FEF725FC03001B891A0044F21443C2F2D5
:10C350000003DB88D31A012B1FD1FEF718FC030062
:10C36000DBB143F20003C4F205031B79DAB243F2F6
:10C370000003C4F2050310210A43D2B21A7143F23A
:10C380000003C4F205031B79DAB243F20003C4F2DE
:10C39000050308210A43D2B21A7143F20003C4F222
:10C3A0000503DB7CDAB2FB1D1A70FB1D1B7844F21F
:10C3B0001443C2F2000301225A7012E0FEF7E7FBB9
:10C3C00003001B891A0044F21443C2F20003DB8805
:10C3D000D31A002B05DDFEF7DAFB03000BB1FFF7E4
:10C3E00090FBC046BD4602B080BDC046FFFFFEFFC9
:10C3F00080B500AF44F28103C2F200031B78012B29
:10C4000002D1FFF7D9F901E0FFF742FCC046BD4673
:10C4100080BD80B500AF44F28103C2F200031B78F7
:10C42000012B02D1FFF78EF801E0FFF7F1FCC046C7
:10C43000BD4680BD80B582B000AF0200FB1D1A7002
:10C44000FB1D1B787F2B13D8FB1D1B781A001F23A5
:10C450001A4011004EF20013CEF20003FA1D1278BA
:10C4600052B2520901208840010060329200D1503E
:10C47000C046BD4602B080BD80B582B000AFFB1D96
